S015000055415254207472616E736D69742E7372656341
S11300000C9434000C943E000C943E000C943E007E
S11300100C943E000C943E000C943E000C943E0064
S11300200C943E000C943E000C943E000C943E0054
S11300300C943E000C943E000C943E000C943E0044
S11300400C943E000C943E000C943E000C943E0034
S11300500C943E000C943E000C943E000C943E0024
S11300600C943E000C943E0011241FBECFEFD8E048
S1130070DEBFCDBF0E9440000C9472000C940000BF
S11300800E94520088E40E946B008AE00E946B0088
S11300902FEF83ED90E3215080409040E1F700C0C2
S11300A00000F0CF1092C50087E68093C400E1EC15
S11300B0F0E0808188618083A2ECB0E08C9186605E
S11300C08C9380818B7F808380818F7C80838C91D3
S11300D0877F8C9308959091C00095FFFCCF809307
S10B00E0C6000895F894FFCF57
S9030000FC
