S02200006463206D6F746F7220636F6E74726F6C207573696E672070776D2E737265630F
S11300000C9434000C943E000C943E000C943E007E
S11300100C943E000C943E000C943E000C943E0064
S11300200C943E000C943E000C943E000C943E0054
S11300300C943E000C943E000C943E000C943E0044
S11300400C943E000C943E000C943E000C943E0034
S11300500C943E000C943E000C943E000C943E0024
S11300600C943E000C943E0011241FBECFEFD8E048
S1130070DEBFCDBF0E945E000C9476000C9400009D
S11300808AB180648AB984B5816084BD84B580688E
S113009084BD84B58F7B84BD85B5826085BD85B5FF
S11300A08A7F85BD08958AB1897F8AB908958BB105
S11300B082608BB98BB18B7F8BB908950E9440000D
S11300C00E9453000E94570080E090E00BC087BD5F
S11300D02FEF31EE44E0215030404040E1F700C0C2
S11300E0000001968F3F910594F3EECFF894FFCF73
S9030000FC
