:100000000C9434000C9446000C9446000C9446006A
:100010000C9446000C9446000C9446000C94460048
:100020000C9446000C9446000C9446000C94460038
:100030000C9446000C9446000C9457000C94460017
:100040000C9446000C9446000C9446000C94460018
:100050000C9446000C9446000C9446000C94460008
:100060000C9446000C94460011241FBECFEFD8E03C
:10007000DEBFCDBF21E0A0E0B1E001C01D92A23003
:10008000B207E1F70E947F000C9488000C940000F6
:1000900084B5826084BD85B5836085BD89EF87BDE9
:1000A000EEE6F0E0808182608083789408951F926C
:1000B0000F920FB60F9211242F938F939F938091DD
:1000C000000190910101019690930101809300013C
:1000D0008091000190910101883E934040F095B1DC
:1000E00084E0892785B910920101109200019F9147
:1000F0008F912F910F900FBE0F901F9018950E9417
:10010000480084B1846084B985B18B7F85B9FFCF05
:04011000F894FFCF91
:00000001FF
