:100000000C9434000C943E000C943E000C943E0082
:100010000C943E000C943E000C943E000C943E0068
:100020000C943E000C943E000C943E000C943E0058
:100030000C943E000C943E000C943E000C943E0048
:100040000C943E000C943E000C943E000C943E0038
:100050000C943E000C943E000C943E000C943E0028
:100060000C943E000C943E0011241FBECFEFD8E04C
:10007000DEBFCDBF0E9440000C946E000C940000C7
:1000800084B1806284B984B1846084B984B18260AF
:1000900084B985B1806285B985B1846085B985B13F
:1000A000826085B92FEF83ED90E32150804090402E
:1000B000E1F700C0000085B18F7D85B985B18B7FE8
:1000C00085B985B18D7F85B92FEF83ED90E3215000
:1000D00080409040E1F700C00000DBCFF894FFCFF4
:00000001FF
