S025000065787465726E616C20696E74657272757074207573696E6720494E54312E737265630D
S11300000C9434000C943E000C9452000C943E006A
S11300100C943E000C943E000C943E000C943E0064
S11300200C943E000C943E000C943E000C943E0054
S11300300C943E000C943E000C943E000C943E0044
S11300400C943E000C943E000C943E000C943E0034
S11300500C943E000C943E000C943E000C943E0024
S11300600C943E000C943E0011241FBECFEFD8E048
S1130070DEBFCDBF0E9464000C946E000C9400009F
S11300808AB1877F8AB98BB188608BB9E9E6F0E0E1
S113009080818860808380818B7F80838DB3826040
S11300A08DBB08951F920F920FB60F9211248F9358
S11300B09F9395B188E0892785B99F918F910F907F
S11300C00FBE0F901F9018950E94400084B1886065
S11300D084B985B1877F85B97894FFCFF894FFCF31
S9030000FC
