:100000000C9434000C9449000C9449000C94490061
:100010000C9449000C9449000C9449000C9449003C
:100020000C9449000C9449000C9449000C9449002C
:100030000C9449000C9449000C9449000C9449001C
:100040000C9449000C9449000C9449000C9449000C
:100050000C9449000C9449000C9449000C944900FC
:100060000C9449000C94490011241FBECFEFD8E036
:10007000DEBFCDBF11E0A0E0B1E0ECE2F2E002C0F3
:1000800005900D92A631B107D9F70E94F1000C94AA
:1000900014010C94000085B1886085B9000085B119
:1000A000877F85B980E18A95F1F700C008959BB1FB
:1000B000937C9BB983FF03C09BB194609BB982FF83
:1000C00003C09BB198609BB981FF03C09BB1906155
:1000D0009BB980FF03C08BB180628BB90E944B003B
:1000E0000895CF93C82F613021F485B1806185B91F
:1000F00003C085B18F7E85B98C2F82958F700E9449
:1001000057008C2F8F700E945700CF910895CF9386
:10011000C82F60E00E947100C150C23030F483EFFC
:1001200091E00197F1F700C00000CF91089561E0E0
:100130000E9471000895882311F090E401C090E0BE
:10014000862F8F70890F80680E9487000895CF9353
:10015000DF93EC0103C021960E94970088818111F2
:10016000FACFDF91CF91089584B1806184B984B1D1
:10017000886084B98AB18C638AB987E893E1019772
:10018000F1F700C0000085B18F7E85B985B1877F0A
:1001900085B983E00E94570081EE94E00197F1F762
:1001A00000C0000083E00E94570092E39A95F1F7A7
:1001B00083E00E94570082E00E94570082E38A9504
:1001C000F1F788E20E94870088E00E94870081E0C2
:1001D0000E94870086E00E9487008CE00E948700D2
:1001E00008950E94B40060E080E00E949B0080E0DF
:1001F00091E00E94A70060E081E00E949B008AE0FD
:1002000091E00E94A70060E080E00E949B0080E0F7
:1002100091E00E94A70060E081E00E949B008AE0DC
:0C02200091E00E94A700EFCFF894FFCF00
:10022C0048656C6C6F204C43440069747320776F85
:06023C00726B732000004C
:00000001FF
