S0160000332E206C6564207061747465726E2E737265633A
S11300000C9434000C943E000C943E000C943E007E
S11300100C943E000C943E000C943E000C943E0064
S11300200C943E000C943E000C943E000C943E0054
S11300300C943E000C943E000C943E000C943E0044
S11300400C943E000C943E000C943E000C943E0034
S11300500C943E000C943E000C943E000C943E0024
S11300600C943E000C943E0011241FBECFEFD8E048
S1130070DEBFCDBF0E9440000C948D000C940000A4
S113008020E030E00DC04AB181E090E0022E02C0D1
S1130090880F991F0A94E2F7842B8AB92F5F3F4F88
S11300A02830310584F320E030E016C04BB181E004
S11300B090E0022E02C0880F991F0A94E2F7842B65
S11300C08BB94FEF83ED90E3415080409040E1F7CE
S11300D000C000002F5F3F4F283031053CF320E083
S11300E030E017C04BB181E090E0022E02C0880FCF
S11300F0991F0A94E2F7809584238BB94FEF83ED1F
S113010090E3415080409040E1F700C000002F5F31
S11101103F4F2830310534F3C6CFF894FFCFAB
S9030000FC
