:100000000C9434000C943E000C943E000C943E0082
:100010000C943E000C943E000C943E000C943E0068
:100020000C943E000C943E000C943E000C943E0058
:100030000C943E000C943E000C943E000C943E0048
:100040000C943E000C943E000C943E000C943E0038
:100050000C943E000C943E000C943E000C943E0028
:100060000C943E000C943E0011241FBECFEFD8E04C
:10007000DEBFCDBF0E945E000C948D000C9400008A
:100080008AB180648AB984B18F7D84B985B1806278
:1000900085B984B5816084BD84B5806884BD85B52B
:1000A000826085BD08958AB186608AB908958BB152
:1000B00082608BB98BB18B7F8BB908950E94400011
:1000C0000E9453000E94570021E090E001C0282FB9
:1000D00083B18072222331F0811104C09F5F95307B
:1000E00009F490E0923081F028F4992341F09130A6
:1000F00041F0EDCF933059F0943061F0E8CF17BC68
:10010000E6CF2FE327BDE3CF2FE727BDE0CF2FEBCF
:0E01100027BDDDCF2FEF27BDDACFF894FFCF4C
:00000001FF
