S0180000342E20696E7075742072656164696E672E7372656360
S11300000C9434000C943E000C943E000C943E007E
S11300100C943E000C943E000C943E000C943E0064
S11300200C943E000C943E000C943E000C943E0054
S11300300C943E000C943E000C943E000C943E0044
S11300400C943E000C943E000C943E000C943E0034
S11300500C943E000C943E000C943E000C943E0024
S11300600C943E000C943E0011241FBECFEFD8E048
S1130070DEBFCDBF0E9440000C9453000C940000DE
S11300808AB18F7D8AB984B1846084B989B1807260
S113009089B9882321F085B1846085B9F7CF85B10A
S10D00A08B7F85B9F3CFF894FFCFEE
S9030000FC
